:020000040000fa
:080000000002040000000000f2
:020000040000fa
:04000800fa020000f8
:020000040000fa
:04000c00fa020000f4
:020000040000fa
:04001000fa020000f0
:020000040000fa
:04001400fa020000ec
:020000040000fa
:04001800fa020000e8
:020000040000fa
:04001c00fa020000e4
:020000040000fa
:04002000fa020000e0
:020000040000fa
:04002400fa020000dc
:020000040000fa
:04002800fa020000d8
:020000040000fa
:04002c00fa020000d4
:020000040000fa
:04003000fa020000d0
:020000040000fa
:04003400fa020000cc
:020000040000fa
:04003800fa020000c8
:020000040000fa
:04003c00fa020000c4
:020000040000fa
:04004000fa020000c0
:020000040000fa
:04004400fa020000bc
:020000040000fa
:04004800fa020000b8
:020000040000fa
:04004c00fa020000b4
:020000040000fa
:04005000fa020000b0
:020000040000fa
:04005400fa020000ac
:020000040000fa
:04005800fa020000a8
:020000040000fa
:04005c00fa020000a4
:020000040000fa
:04006000fa020000a0
:020000040000fa
:04006400fa0200009c
:020000040000fa
:04006800fa02000098
:020000040000fa
:04006c00fa02000094
:020000040000fa
:04007000fa02000090
:020000040000fa
:04007400fa0200008c
:020000040000fa
:04007800fa02000088
:020000040000fa
:04007c00fa02000084
:020000040000fa
:04008000fa02000080
:020000040000fa
:04008400fa0200007c
:020000040000fa
:04008800fa02000078
:020000040000fa
:04008c00fa02000074
:020000040000fa
:04009000fa02000070
:020000040000fa
:04009400fa0200006c
:020000040000fa
:04009800fa02000068
:020000040000fa
:04009c00fa02000064
:020000040000fa
:0400a000fa02000060
:020000040000fa
:0400a400fa0200005c
:020000040000fa
:0400a800fa02000058
:020000040000fa
:0400ac00fa02000054
:020000040000fa
:0400b000fa02000050
:020000040000fa
:0400b400fa0200004c
:020000040000fa
:0400b800fa02000048
:020000040000fa
:0400bc00fa02000044
:020000040000fa
:0400c000fa02000040
:020000040000fa
:0400c400fa0200003c
:020000040000fa
:0400c800fa02000038
:020000040000fa
:0400cc00fa02000034
:020000040000fa
:0400d000fa02000030
:020000040000fa
:0400d400fa0200002c
:020000040000fa
:0400d800fa02000028
:020000040000fa
:0400dc00fa02000024
:020000040000fa
:0400e000fa02000020
:020000040000fa
:0400e400fa0200001c
:020000040000fa
:0400e800fa02000018
:020000040000fa
:0400ec00fa02000014
:020000040000fa
:0400f000fa02000010
:020000040000fa
:0400f400fa0200000c
:020000040000fa
:0400f800fa02000008
:020000040000fa
:0400fc00fa02000004
:020000040000fa
:04010000fa020000ff
:020000040000fa
:04010400fa020000fb
:020000040000fa
:04010800fa020000f7
:020000040000fa
:04010c00fa020000f3
:020000040000fa
:04011000fa020000ef
:020000040000fa
:04011400fa020000eb
:020000040000fa
:04011800fa020000e7
:020000040000fa
:04011c00fa020000e3
:020000040000fa
:04012000fa020000df
:020000040000fa
:04012400fa020000db
:020000040000fa
:04012800fa020000d7
:020000040000fa
:04012c00fa020000d3
:020000040000fa
:04013000fa020000cf
:020000040000fa
:04013400fa020000cb
:020000040000fa
:04013800fa020000c7
:020000040000fa
:04013c00fa020000c3
:020000040000fa
:04014000fa020000bf
:020000040000fa
:04014400fa020000bb
:020000040000fa
:04014800fa020000b7
:020000040000fa
:04014c00fa020000b3
:020000040000fa
:04015000fa020000af
:020000040000fa
:04015400fa020000ab
:020000040000fa
:04015800fa020000a7
:020000040000fa
:04015c00fa020000a3
:020000040000fa
:04016000fa0200009f
:020000040000fa
:04016400fa0200009b
:020000040000fa
:04016800fa02000097
:020000040000fa
:04016c00fa02000093
:020000040000fa
:04017000fa0200008f
:020000040000fa
:04017400fa0200008b
:020000040000fa
:04017800fa02000087
:020000040000fa
:04017c00fa02000083
:020000040000fa
:04018000fa0200007f
:020000040000fa
:04018400fa0200007b
:020000040000fa
:04018800fa02000077
:020000040000fa
:04018c00fa02000073
:020000040000fa
:04019000fa0200006f
:020000040000fa
:04019400fa0200006b
:020000040000fa
:04019800fa02000067
:020000040000fa
:04019c00fa02000063
:020000040000fa
:0401a000fa0200005f
:020000040000fa
:0401a400fa0200005b
:020000040000fa
:0401a800fa02000057
:020000040000fa
:0401ac00fa02000053
:020000040000fa
:0401b000fa0200004f
:020000040000fa
:0401b400fa0200004b
:020000040000fa
:0401b800fa02000047
:020000040000fa
:0401bc00fa02000043
:020000040000fa
:0401c000fa0200003f
:020000040000fa
:0401c400fa0200003b
:020000040000fa
:0401c800fa02000037
:020000040000fa
:0401cc00fa02000033
:020000040000fa
:0401d000fa0200002f
:020000040000fa
:0401d400fa0200002b
:020000040000fa
:0401d800fa02000027
:020000040000fa
:0401dc00fa02000023
:020000040000fa
:0401e000fa0200001f
:020000040000fa
:0401e400fa0200001b
:020000040000fa
:0401e800fa02000017
:020000040000fa
:0401ec00fa02000013
:020000040000fa
:0401f000fa0200000f
:020000040000fa
:0401f400fa0200000b
:020000040000fa
:0401f800fa02000007
:020000040000fa
:0401fc00fa02000003
:020000040000fa
:04020000fa020000fe
:020000040000fa
:04020400fa020000fa
:020000040000fa
:04020800fa020000f6
:020000040000fa
:04020c00fa020000f2
:020000040000fa
:04021000fa020000ee
:020000040000fa
:04021400fa020000ea
:020000040000fa
:04021800fa020000e6
:020000040000fa
:04021c00fa020000e2
:020000040000fa
:04022000fa020000de
:020000040000fa
:04022400fa020000da
:020000040000fa
:04022800fa020000d6
:020000040000fa
:04022c00fa020000d2
:020000040000fa
:04023000fa020000ce
:020000040000fa
:04023400fa020000ca
:020000040000fa
:04023800fa020000c6
:020000040000fa
:04023c00fa020000c2
:020000040000fa
:04024000fa020000be
:020000040000fa
:04024400fa020000ba
:020000040000fa
:04024800fa020000b6
:020000040000fa
:04024c00fa020000b2
:020000040000fa
:04025000fa020000ae
:020000040000fa
:04025400fa020000aa
:020000040000fa
:04025800fa020000a6
:020000040000fa
:04025c00fa020000a2
:020000040000fa
:04026000fa0200009e
:020000040000fa
:04026400fa0200009a
:020000040000fa
:100400002f0221000eff27000e01880000000000cf
:10041000000020000000e000020032000001200087
:100420002002880014000700740007000000e000ac
:1004300003003a00a0cf2100010020000200370095
:100440000000200001002000810f70000100320038
:100450000f000700000020000000e0000200320052
:100460000000020000000000661c02000000000006
:100470000040da000000fe00a00020000000e000c4
:1004800002003200002020009001880000000600d9
:10049000a1028800800478000000eb001f003700f4
:1004a000e284440054a0b4009905ba00e2844400f8
:1004b00054a0b4009906ba00e284440054a0b400e9
:1004c0000006eb00476fde00fd07b200ae018800ba
:1004d000636ce10003003a000ad801000000eb0061
:1004e0000e003700606ce10008003a00004deb00a0
:1004f0000a05e800020039003420ec000af0a000f0
:100500008b05e900f9ff3e00040037006168e10057
:10051000010032000086eb000b00070019c7ba008b
:100520000e04e0001905ba0003003a000a00e000da
:10053000dbff3a0000000600fe07b200ae028800b2
:100540008a047800f5ff37000cd0a300e20f4d00bd
:100550001c003b0089027800354dba000a05e8000e
:10056000020039003420ec000af0a0008b05e900fd
:100570000f003200254dba000a05e80002003900dc
:100580003420ec000af0a0008b05e90008003200de
:100590000c00e0000600320015cdba000a05e800a4
:1005a000020039003420ec000af0a0008b05e900bd
:1005b0008984e80054a0b4000b00e000e2ff3a0098
:1005c000000006009902ba00055d78008b05e9007d
:1005d000f7ff3200c82ade00055d78008b05e900d0
:1005e000f3ff32000c00e000f1ff320019ddba0029
:1005f000eeff37000040da000000fe0000000500ba
:100600000001be00220007000470a70003f0a10053
:100610006509b100160032000d0035006828e100c0
:1006200006003500f0ff2f00f1ff27000300e00077
:1006300013003b00010028000000050000004000fe
:10064000818048008502e900fcff3a00080037007d
:10065000f88f420002003c008000eb000000050023
:100660008100d1000080d3008502e800fcff3a0041
:100670000300e00002003b0060001000e080180072
:10068000000006004f89de00820178007c023700fe
:10069000c70ade00f107b200f50fb2000800320011
:1006a000e1cf4200020032000170a00024000500ea
:1006b000810f7000010032000408050044000500ad
:1006c000810f700002003a00140005008502e90065
:1006d0000000400081c04800fcff3b000170a0000a
:1006e00024000500889fbe008a9fbe008c9fbe002c
:1006f0001b0020000202be000586680006002800dc
:10070000060666004709de00f20fb20082003200e2
:100710000243e80080003200c729de00f30fb20078
:100720007d0032000343e8007b003200f107b20095
:100730000170a000f507b2000570a000c708dd0039
:100740004903de00868070004700dd00c72add0017
:100750004923de00868272004722dd000305510036
:10076000040350008583580003003100000040005e
:10077000818048000a05e9008c1f78008a9fbe002e
:1007800004005000858058000402420085824a001f
:1007900000004000818048000005eb000004be001e
:1007a0006033b8000406be000d48e1005600310079
:1007b000110009004dccd8000c01b8000d02b800a2
:1007c0008481410060824a008283530003045c00fc
:1007d00084845c0060055d000a00e00025003a00aa
:1007e000800578000d40e100490031008800780064
:1007f00007007800110009004d88d8000c01b800ee
:100800000d02b8008481410060824a00600311003b
:1008100083835b0004045c00e0845c000900e0006a
:1008200021003a004f01be000300e0002b0032001f
:10083000e3016000070673008c8171000100320043
:10084000640070004200de004e5edd000c007000af
:10085000c258de0001e0a00083010700cf0178004c
:10086000818071004f06be004f05be004f04be00e0
:10087000000006008c8343000d044c00e0844c0013
:1008800060054d000000e9000a00e000d4ff3200de
:100890008c8343000d044c00e0844c0060054d0047
:1008a0000000e900ceff37000c0343008d834b00ae
:1008b00060044c00e0844c000000e9000900e00006
:1008c000d8ff32000c0343008d834b0060044c00c2
:1008d000e0844c000000e900d2ff37004200de0057
:1008e0004e5edd000c007000c258de0001e0a0008a
:1008f000cf0178000300e000daff32006000100052
:10090000e0801800d7ff3700f0ff2f00aaff370064
:10091000f0ff2f00b9ff37000404be002f010700cd
:10092000870678000004fd008104fd002b0107000c
:10093000078366000678a300030032000960a70061
:100940000800be002c0037000d78a3000200320022
:100950000800be00280037000778a30026003a00f0
:1009600001f0a10009f0a1000668a3000300320015
:10097000f1ff2700f0ff2f00baff37000d68a3003a
:10098000030032000800be008c807000b5ff370005
:100990000768a30007003a000648a30003003200de
:1009a000f1ff2700f0ff2f00aeff37000d48a30036
:1009b000030032006000b8008c807000a9ff37008f
:1009c0000748a3000400320001f8270000002000bf
:1009d0008c807000a3ff3700760107000004fd0043
:1009e0008104fd0002057800720107000802be00c4
:1009f0008a01780059ff37000160a0001202200030
:100a00000280880097ff37000100e00012003200ea
:100a10000500e00010003200889fbe008a9fbe00e3
:100a20008c9fbe000006eb0001f8a300030032001b
:100a300060001000e08018000cf0a00005f8a30092
:100a40000300320060021200e0821a000cf0a200e3
:100a50008005eb0041ff37006000b8000200050090
:100a6000038368000700280007036300470ade00cd
:100a70000480a100c71ade000580a100f70f200046
:100a80000720e100420032000728e1004000320068
:100a9000889fbe008a9fbe008c1f7800f107b200bd
:100aa000f307b2000400e000640032000170a0000f
:100ab0000500e000680032000370a00085054200d8
:100ac000eb07b1000204b8000302b80084844400bc
:100ad00060854a00020ab800848444000a854a00fe
:100ae000030ab80004054500040033000804d000e0
:100af0008984d2000a85d2008b05e9006158e100a3
:100b00003d003500021020000901610003082000ab
:100b100089816100f70720008783640008867300dd
:100b2000c84cde00c853dd00878474004855de00e1
:100b30000300e00006003200820376000400320069
:100b40008904e80060054d000a88a3000c003a0003
:100b5000f70f20000758e10044003d000a70a10093
:100b6000c75ddd000a8575008a0073000900780002
:100b70004f0678004f05be004f04be00000006007f
:100b80000a05d1008984d3008b05e800f0ff370007
:100b9000881f78000604780090000700070278009c
:100ba0000001fd008101fd008c0007008702780034
:100bb000850372000778a300050032000001fd00e4
:100bc0008101fd009f0007004f047800000006002f
:100bd000850372000748a30003003200f0ff2f00d6
:100be000f1ff2700f8ff37000000200001f8270080
:100bf00088807000f4ff3700880178004848dd00e5
:100c0000808171004848de00c850dd00010070009e
:100c1000c850de00060478000b01780016000700bb
:100c200088807000d2ff37000500e0000500320028
:100c3000170020003a0007009dff37008103700075
:100c4000f9ff3a00860078004f0678004f05be0095
:100c50004f04be000000050083037100f9ff32005d
:100c6000270020002e00070094ff370001f827001e
:100c700086807000f4ff37000100e000260032009b
:100c8000610111007810e10023003c006022b800ef
:100c90007010e10004003500800278000100780047
:100ca0008000eb00700151000200e00009003400f8
:100cb00070031100062add00822ade008603dd00b3
:100cc000878272000200de00860bdd0007007000e4
:100cd0008208de0084817100f4ff27000482620034
:100ce0008481710004002800848262006102600037
:100cf00005f0a60000000600048271000700320023
:100d00000000e800e0804800000006000002be008d
:100d10006000b800efff37006000b8000000060078
:100d2000889fbe000004eb006138e10016003a0025
:100d30000100e00008003a00c800de004800dd00c5
:100d4000880020000100e00003003a00c800de0037
:100d50004800dd00680444008184cf00e984540029
:100d6000060034008908dd00f08314008703de00ec
:100d7000878070000900dd0009044400610214004e
:100d80004f04be00000006000300e00008003a0027
:100d9000c811de004811dd00880020000300e000db
:100da00003003a00c811de004811dd006804440069
:100db0008384cf00e9845400060034008919dd00e3
:100dc000f08314008713de00878171000911dd00b4
:100dd00009044400e1021400e9ff37002700200065
:100de00001f0a70017002000470bde00f60fb2004d
:100df000040032000643e8000a0032004702b30054
:100e00000000060001037800f607b2000603700038
:100e100002003a000703b300000006008702b30097
:100e20000000060001037800f607b2000603700018
:100e3000020032000770a000000006000760a0005a
:100e4000000006000478a300040032000578a30027
:100e5000030032000168a30001003a000200be0056
:100e60000160a00000000600810170002700320030
:100e70008002eb0001f8a3000300320060001000c4
:100e8000e080180015002000f40720000202420054
:100e900020003400f70320008703600006042000d0
:100ea0000003630002082000000161004700de002b
:100eb000c909dd0000807100c708de000600e000ff
:100ec0000800320087037100060032001000b000f5
:100ed0000180b0000188a30002003200c108de00da
:100ee0000402e800f107b200f30f20000320e10044
:100ef00003003d004722dd00810072002900370019
:100f000001f827000000eb00260037006000b80061
:100f100000000600680212007f20e1000200340099
:100f20006000b8001f0037006011b8007020e100b9
:100f30000400350080017800010078008000eb009b
:100f4000700252000400e00009003400f0031200b7
:100f50000719dd008419de000703dd0086817100ba
:100f60000400de00070bdd00060070008408de00d0
:100f7000f7ff2700838363008703710006002800c2
:100f800003036300070032000700e00003003a009b
:100f90006101600002817300020032001000b000a5
:100fa0000180b0000500a6000000060001f0a000ce
:100fb000000006004f0ade004709de00f107b2001c
:100fc000f20fb2000b003200f207b1000170a00076
:100fd000c708dd00c901de00838070004700dd0026
:100fe0000400a6000000060060001000e080180069
:100ff00000000600810f700001003a0000000600aa
:101000008182cf000500e00010003e008082cf000a
:10101000ee8242007028e1000400390007003e0023
:10102000800078000000eb000e0037007083120093
:101030008600de000500dd000a00370070835200e4
:101040008600dd000000eb0006003700e28252005f
:101050008508dd00708312000603de0086807000c4
:101060000500dd007507b0000501ea000400a600d8
:101070000000060060001000e0801800000006007c
:10108000881f7800030478000300e00007003d009b
:1010900060001000e080180060011900e081190074
:1010a00002003b0001f02d000300370004000700a0
:1010b00008f0a70001f0a0004f047800000006002f
:1010c000889fbe008a9fbe000082700004027100eb
:1010d00004827100260032000004be000200be003f
:1010e0006011b8006b092000950220000182cf003a
:1010f0000a0039000541b1000082cf000700390025
:101100000541b1000982cf00040039000541b1005a
:101110000882cf00010039000541b10005425200ac
:10112000120032000a003b008281710061016400fc
:101130008100d1000080d3008984d3000884d300cb
:101140008b05e8000442e800f7ff3a00070037008b
:101150000804440089844c00000048008180480055
:101160008b05e9000442e900f9ff3a00030007009b
:101170004f05be004f04be000000060081002000a5
:10118000618055000b003d000b00200061fe2f0028
:101190000100e1001d0034008281710061016400e2
:1011a0008904d1000884d3000000e800faff3a0067
:1011b0007100200061006400030070000200600004
:1011c0000900320061044400e0844c000988a50055
:1011d000050032008b05e8006808e10002003a00d3
:1011e0008904d1000884d300f20f20000258e100e6
:1011f00005003d00c75ddd00f907b200898075007c
:1012000008007800000006000bf827008b0078002b
:10121000000005000000fa0068815700cfb8970071
:101220000d0207000080fa00000006001e00070003
:10123000790007002e01070058010700af000700e2
:1012400061020700080237008000780004003700c0
:101250003104e00002003a000000510000000600e6
:10126000010178000108a300f9ff3a00810178002c
:1012700031017800f4ef2f00020242000281ea00ff
:10128000020162000408280004016100f7ff320037
:1012900083007800010178003104e000fdff3a008e
:1012a0000000510000000600ec874700889fbe0048
:1012b0008a9fbe008c9fbe008e1f780000067800bb
:1012c000010478001807900028059000980678001f
:1012d000cdb79f00b80590001202780092029000ee
:1012e00022039000b20390000400be000601be007d
:1012f0004f18de006011b8008000eb00d0b79f00ef
:10130000e1b79f00f2b79f0083bf9f008004780081
:101310000900e000060032006000b8006011b8006b
:101320000402500085825800060359008783590043
:101330000e00e000020035000d10a100cdb79f00a7
:101340000900e00005003a004fb097000028a30014
:1013500002003a000038a300020032008a00e900cf
:10136000010037008a007800f8815700a2002000b1
:10137000080078008b0007000900e00003003a0035
:10138000cfb097000128a300080032000000e90058
:1013900000814500b1c2b3000900e0000100320045
:1013a000d1c2b30001497800060037000138a3001c
:1013b000040032000000e9008080450002c2b30052
:1013c00082487800480190000201e90000015100c4
:1013d000808045004fb297008a0178000c007800a9
:1013e000440207009c0090000188a3000400320022
:1013f00098009000810f500001003d00010078002e
:101400004f0778004f06be004f05be004f04be00d8
:10141000cf00b100000006000200fa00889fbe0065
:101420008a9fbe00800578000104780002007800e1
:10143000180190002805900098007800b1bf9f0027
:10144000b80490000200e000020035000110a10085
:10145000b1bf9f00ea815700820020008a00780017
:10146000100278009002900020039000b0039000da
:10147000080078004b0007003fb99700f0006100ba
:10148000040032000000e9008080440002c3b30081
:10149000824878003fb99700e800610004003200fc
:1014a0000000e9008080440002c2b3008248780056
:1014b000480190000201e9000001510080804400d1
:1014c0003fba97008a0178000b00780009020700f4
:1014d0009b0090000188a300040032009800900057
:1014e000810f500001003d00010078004f05be0053
:1014f0004f04be000080fa0000000600ea874700a3
:10150000889fbe008a9fbe008e1f7800000478006e
:10151000030078007287570084e2260055c7260032
:10152000049fbe00c3962200030f78006c8757000b
:10153000004feb0011059000a10490009105780088
:101540000200e000020032000207780001003700cc
:10155000728757000000e00002003a000e00780099
:1015600039ff07000a00e000030035008a0f500031
:10157000010036000a0078000b027800890178002b
:10158000000178008e00780008007800d90107007b
:101590004f0778004f05be004f04be00af00b100fa
:1015a00000000600f4874700889fbe008a9fbe00a7
:1015b0008c9fbe008e1f78000605be000404be008e
:1015c00081bf9f0082b79f00f3b79f00b0009000db
:1015d000e1b79f001301780092b79f00900690003a
:1015e000400090000000e900000678000d00e000d7
:1015f00001003d001d002000efb197000080410078
:101600000048eb001e0020001f0037000c06e90018
:101610000fb09700cf80de006109b900a0b79f002e
:10162000b1b79f00c2b79f00d3b79f000203be00af
:101630000002be000800be000a01be0054050700fb
:1016400000077800efb097000c80400003c3b300a0
:10165000034847008d06e9000fb897000000e90035
:1016600080bf9f002fb29700bfb297004fb3970083
:10167000dfb397000800be000a01be003d05070069
:101680000205be000004be000c00e0000d003400a6
:10169000e00f5400e08f5c00e00f5d00e08f5d0024
:1016a000daff3a000d00e000d8ff3c008fb8970049
:1016b0000100e000030034001fb197000218a300ee
:1016c000d2ff3a000e00e00002003a00ffb197009e
:1016d0001340a1000c0078004f0778004f06be00b1
:1016e0004f05be004f04be004f01b10000000600d0
:1016f0000200fa00889fbe008a9fbe0000057800a5
:10170000010478000200780018019000a8049000fd
:1017100098007800b1bf9f00b80590000200e0007b
:10172000020035000110a100b1bf9f00ea815700ff
:10173000a20020008900780010027800900290003a
:1017400020039000b00390000800780095ff070088
:10175000480190000201e90000015100808045002d
:101760003fba9700890178000a00780061010700fc
:101770009a0090000188a3000400320098009000b5
:10178000810f500001003d00010078004f05be00b0
:101790004f04be000080fa0000000600fa874700f0
:1017a000889fbe008a9fbe008c9fbe008e1f78005f
:1017b0008004780001047800820578001801900008
:1017c0002805900018077800b80090000200e0009b
:1017d000020035000e10a1000100370012002000a9
:1017e00070006700e0b79f000b0032001b0278001a
:1017f0009b0290002b039000bb039000e00f52006f
:10180000e08f5a00e00f5b00e08f5b0002003200c7
:101810008a86e900010037008a067800e80267003e
:10182000f5b79f00010032008d06e9001b02780029
:101830009b0290002b039000bb039000e4af9f003d
:10184000f5af9f0086b79f0097b79f0048069000ae
:101850000c06e9000c8040000048eb00efb2970056
:101860007fb297008903780081047800d8af9f0089
:10187000020478008bbf9f008a057800034578003a
:101880002b0037000c06e9006fab97006f00630078
:10189000e90f500002003c000003b00001003700d7
:1018a0007005b0000a03fb001604b100f90f5300e5
:1018b0000c003e00000378000650a0001606b100a0
:1018c000f90f530007003e00b4b79f00a5b79f0073
:1018d000c7b79f008b030700cfb39700afb2970045
:1018e0003fb297000c834400004b78000804e900e5
:1018f0008d06e9006fa89700ffa897000fb1970029
:101900009fb19700460020008301d1000281d300df
:101910008180d3000080d3000603e900faff3a007b
:10192000e0af9f00f1af9f0082b79f0093b79f0089
:10193000e10f56000f0034006fa89700ffa8970032
:101940000fb197009fb19700e00f5000e08f580053
:10195000e00f5900e08f5900caff3a000800e0008c
:10196000c8ff3c000d00e000020034000e18a30088
:10197000c4ff3a0089007800f4b79f00870478001c
:101980005fac97008a4178000b0578008fbd970007
:101990000500e000140032001b0278009b0290005a
:1019a0002b039000bb039000e4af9f00f5af9f00b6
:1019b00086b79f0097b79f00e00f5200e08f5a0054
:1019c000e00f5b00e08f5b00070032000c06e900cf
:1019d0000c804000034878000c06e9000c804000b1
:1019e00002c3b30002487800ffb297000500e00090
:1019f000040032000c06e9000c80400002c2b30073
:101a000002487800480190000201e9000c015100f1
:101a10008c8040000e0278008a017800090078006e
:101a2000b4000700990090000188a3000400320070
:101a300098009000810f500001003d0001007800e7
:101a40004f0778004f06be004f05be004f04be0092
:101a5000af01b100000006008201780001017800aa
:101a6000f1ff27002e03370084082000848f5000e8
:101a70001d0032000d003c0014082000848f50002f
:101a80002700320002003c00040820000400370058
:101a900024082000848f50003600320044082000c3
:101aa000848f500047003a003a003700040a2000b3
:101ab000848f50002900320004003c0004092000fb
:101ac000848f50003f003a002a003700020c2000ab
:101ad000828f500033003200020f2000828f5000ae
:101ae00038003a002f0037009380e9000200e00040
:101af00005003200810978001102fb00cfa2de0050
:101b0000612bb9002c003700810978001142780060
:101b10000482fb008002eb006033b800260037002f
:101b200013027800e40052000200e00006003200d8
:101b30008109780011027800910290004fabde001d
:101b4000860378001c0037008109780011027800b4
:101b5000910290006033b800170037009380e900cd
:101b60008109780011027800cfa2de00612bb90054
:101b70001100370093027800e88052008109780054
:101b8000110278009102900021039000b1039000af
:101b9000090037009380e9000200e00002003200f3
:101ba000efff37009380e900810978001102780087
:101bb0008002eb006033b8000498be000690be00bf
:101bc000100005000000050044082000848f50002c
:101bd0002500320008003c0014082000848f5000cb
:101be0001400320024082000848f500024003200aa
:101bf000040820000c00370004092000848f5000e6
:101c00001f00320004003c0084082000848f500034
:101c100024003a000e003700040a2000848f500090
:101c200011003200040c2000848f50001d003a0087
:101c30000d0037009380e900810978009100780059
:101c400001087800cf91de008288be0014003700c2
:101c50009380e900810978009100780001087800fc
:101c6000824878000e0037009380e90081097800ef
:101c70009100780001087800820878000800370099
:101c80009380e900810978009100780001087800cc
:101c90006112b900612bb9008498be008690be0025
:101ca0001000050000000500889fbe0000047800b9
:101cb0004800900082047800808f540001003600b4
:101cc0008004780009017800580090001b0207008a
:101cd000580090000900400050049800c80090008f
:101ce00089845000490498000048eb004f04be006e
:101cf00000000600f2874700889fbe008a9fbe0052
:101d00008c9fbe008e1f780080047800010578004b
:101d100002047800830578006107620002003a003f
:101d20008b0f540008003900080178008a00780001
:101d300009007800dcff07008b0f54000200390017
:101d4000880578001e003700088655000c017800d1
:101d5000f00f5600010036000201200001022000b1
:101d60007e805700fc0107008c06780005003700d4
:101d700002012000fe80570009007800caff07001a
:101d8000f0865600ef8f5600f9ff3e004461de00fa
:101d900000ff2f008091b9000c014100fe80570028
:101da00009007800c0ff07000e00e00004003a00c0
:101db000080178008a00780009007800baff07005f
:101dc0000b0078004f0778004f06be004f05be009d
:101dd0004f04be002f01b100000006000000050006
:101de0000000050000000500000178000040eb0045
:101df0008080fb0081804000a300210081814100a0
:101e0000134278000404e00004003a00b00021000e
:101e10008100400011407800000006009201780027
:101e2000934f520005003a00b000210081004000ad
:101e3000114078000309e800010037000040e80085
:101e4000ea4f5000eaff360000000600f687470020
:101e5000889fbe008a9fbe008c9fbe008e1f7800a8
:101e600000057800010478008305780004067800f6
:101e70000000eb00c0b79f008080eb00d1b79f004f
:101e8000e0b79f00f2b79f000008200080bf9f00ce
:101e900098007800010078008004eb000100370012
:101ea0008904e800304178000204e00003003200b9
:101eb00053c2b300834f5100f9ff3a000900e0001c
:101ec00004003200090178000a00780076ff07005c
:101ed000188c44001807780050c2b3009e4f1000c1
:101ee0003f013a000e07e8000e0c780010003700a2
:101ef000cfb097000100a0000b003700cfb09700d3
:101f00000110a00008003700cfb097000120a0000a
:101f100005003700cfb097000130a0000200370065
:101f2000cfb097000140a000c1b79f00000ce800af
:101f30001800780090407800b2c2b30082cf500001
:101f4000f1ff320007003c0002c2b30082cf500014
:101f5000f0ff320032c2b30082cf500007003a00d7
:101f6000efff3700d2c2b30082cf5000e0ff320053
:101f700002c3b30082cf5000e0ff3200a2c2b30020
:101f800082cf50000d003a00000ce8001c80e900f0
:101f9000000e780010007800e0b79f000000e0001d
:101fa0000f003d00cfb097000100a200c1b79f0015
:101fb0000000ea00e0b79f00090037003901070080
:101fc000e0b79f0001003700000ce800180078001f
:101fd0009000fb000103b100e98f5000faff3600ca
:101fe0004fb097000008a300020032000010a100cb
:101ff000c0b79f0018007800e1c2b30090cf100076
:1020000016003a008000eb00d1b79f000000e80006
:10201000000c7800a1c2b30090cf100006003a0077
:10202000000ce8001c80e900000e78001000780029
:10203000d0b79f00090037001a010700d0b79f00f2
:1020400001003700000ce800180078009000fb0049
:102050000103b100e98f5000faff36000800780054
:1020600061ff070080467800180078001000fb0030
:102070009d01070091062000810f500038003200ba
:1020800012003c0041062000810f50003400320055
:102090000a003c0011062000810f50002000320091
:1020a00031062000810f5000a000320051022000b4
:1020b000810f5000bc003a00b400370071062000c8
:1020c000810f5000b8003c00880037000107200055
:1020d000810f50005c00320007003c00e106200048
:1020e000810f50007a003200f1062000810f50006d
:1020f000ad003a003900370051072000810f500031
:102100002700320081072000810f5000420032007a
:1021100031072000810f5000a3003a008f003700e4
:102120008d80fb000c01780000fe2f000f004000a6
:10213000a00107000000e000a800320018007800ad
:10214000000ce8009041780002fe2f000f014100d2
:10215000f88057000a00780021ff07000e003700c2
:102160008d80fb008c0178001200200000fe2f0003
:102170000f0040003cfe07000000e0009700320026
:10218000180ce80002fe2f000f014100f8805700f4
:102190000a00780044fc0700808444009000370067
:1021a0008d80fb008c0178000001eb0000fe2f0009
:1021b0000f0040002cfe07000000e0008700320006
:1021c000180ce80002fe2f000f014100f8805700b4
:1021d0000a00780046fd0700efff37008d80fb0006
:1021e0008c0178000001eb0000fe2f000f00400082
:1021f0001dfe07000000e00078003200180ce80027
:1022000002fe2f000f014100f88057000a007800fd
:1022100081fc0700e0ff37008d80fb008c01780017
:102220000001eb0000fe2f000f0040000efe070033
:102230000000e0006900320018007800000ce8009f
:10224000904178001c0037008c0178000001eb0001
:10225000010f200000fe2f000f00400002fe0700cb
:102260000000e0005d003200180ce8000fb097009d
:102270009fb097002fb19700bfb19700e00f5000bb
:10228000e08f5800e00f5900e08f590009003a0034
:10229000cfb597006fb4970020002100eafb07003c
:1022a0000b027800880178000001780021002100ed
:1022b0004700370083c7b30002fe2f000f01410023
:1022c000f88057000a00780034fd0700b2ff37009d
:1022d0000b8144008d80fb008c01780000fe2f00f4
:1022e0000f00400038fe07003c0037008d80fb00e7
:1022f0000c01780000fe2f000f0040002d010700a8
:102300000000e0003500320018007800000ce80002
:102310009041780002fe2f000f014100f880570025
:102320000a007800aefe07009bff370000c8b3002c
:1023300080cf560029003a00180ce8001c80e90004
:10234000000e780010407800e0df9f0013002000ae
:10235000e2fd2f000f0141000800370000c8b30064
:1023600080cf56001d003a00180ce8001c80e900e0
:10237000000e78008001eb0010017800f880570013
:102380000a0078005dfc070083ff370000c8b30037
:1023900080cf560011003a00180ce8004fb29700a9
:1023a000efb19700080037000e0c78000000eb003a
:1023b000c0b79f00e0b79f000080eb00d0b79f0040
:1023c0000002eb008401780012002000810021004f
:1023d0000a00780047fe07006fff3700180ce8007e
:1023e000090078004f0778004f06be004f05be0079
:1023f0004f04be006f01b100000006008200fa0029
:10240000889fbe008a1f780000057800820478004b
:10241000c13f9f000004eb00100037000902780064
:1024200088017800a2f72f000f01410081f72f00eb
:102430008f8040000a00780084fe070008004000fa
:10244000880f500004003d00b00420000081880087
:102450000084eb0004003700000478004f38970038
:102460001004e000edff3a00080078004f05780006
:102470004f04be000080fa000000060080007800d3
:102480001000200002022000828f50000400320061
:10249000e9805000e48f5000010036000000eb009e
:1024a00000000600889fbe008a1f780000057800a3
:1024b0000a047800984478000805e8000900fb0049
:1024c000eeff07000000e000f9ff3a00b0c2b300e1
:1024d00080cf540005003200d0c2b3008000eb0072
:1024e00080cf540005003a00020037008000eb0066
:1024f00001003700110020000804e8000000eb0094
:1025000003003700ea00b900020050000003b000e9
:102510003801fb0003fd2f0082814100e98f51004b
:10252000f8ff36000100e00001003a000000ea0078
:102530004f0578004f04be000000060080017800bf
:1025400002003700b15978000201e9000200e00002
:10255000fcff3a0000000600889fbe008a9fbe0074
:10256000800478000200e0005b0032000140780047
:10257000814c780082814400f1f99f00e20f510004
:102580005500360091449800a1449800e1f99f005d
:10259000d1f99f00e60f51004f003600b14498007a
:1025a000c1f99f00e80f51004b0036000905ea0011
:1025b000630565000a8444000a055100c1ff2f002d
:1025c000010565000080fb008000eb001210200078
:1025d00013102000c6000700008cbe000a01440052
:1025e00060b99f0071b99f00e80f55003a003600ae
:1025f0002004980031049800400498005104980089
:1026000020b99f0031b99f0040b99f0051b99f0088
:10261000f80f5500300036006004980071049800ef
:10262000000c9800110c9800200c9800310c9800b8
:10263000400c9800510c980020b19f0031b19f00d0
:1026400040b19f0051b19f0060b19f0071b19f00e8
:1026500000b99f0011b99f00640164007801410036
:1026600002044400020555006011b8000203be00d8
:102670000002be000403be006022b8000000720029
:1026800081807200020173008381730010003700a3
:10269000009cbe000294be004004980051049800c3
:1026a0006204980073049800000c9800110c9800c4
:1026b000220c9800330c9800400c9800510c9800a4
:1026c000620c9800730c98000a02b1000802b00076
:1026d000ff0f5500eeff3e00090078004f05be00d9
:1026e0004f04be0000000600f1fb2f008080400078
:1026f000f98f500001003e000050a00000000600cd
:10270000f9ff3700f1f92f0080804000f98f500069
:1027100001003e00f005b20000000600f9ff37009e
:10272000f28747008e1f78000202780003017800cc
:102730000000e000020032000007780001003700ce
:10274000728757008002eb000100e00001003200b8
:102750008102e90070805700060009000018eb00b4
:102760000080eb0080bf9f002310200093bf9f00dc
:10277000aebf9f00b1bf9f00c5bf9f000100e0003a
:1027800003003d00b10420000181880006003700ed
:10279000004feb00eebf9f00debf9f00840078007b
:1027a00070805700250007004f0778002f01b10007
:1027b00000000600881f7800000478000008200050
:1027c000808f50001a00350010082000808f5000c4
:1027d0000d00340030082000808f500014003a00b3
:1027e000920078006880500000097800100278009c
:1027f0009002900020039000b0039000049cbe0063
:102800000694be00080037009202780064805200ef
:102810000009780090009000100078001500070073
:10282000009cbe000294be00100020000100370092
:102830000000eb004f047800000006000200fa00e0
:10284000881f780000047800e2bf9f006481570071
:1028500008007800e9fe0700980090000148a300f6
:10286000010032000080eb004f0478000080fa0085
:10287000000006008103780085f707000001be0014
:102880006000b8000478a30013003a006220e10061
:1028900015003e000d0039008301d1000281d300f4
:1028a0008180d3008301d1000281d3008180d300d5
:1028b0008301d1000281d3008180d3000538b000ac
:1028c000c42add00f300b2008381720007f0a70084
:1028d00003f0a0000000060083ff27000200200094
:1028e0006110b900f9ff370003ff2700f7ff370039
:1028f000020ab900001bb9000200b80081004200c2
:102900008100430000000600889fbe008a9fbe0031
:1029100030044200b0844a0030054b0090854b00e3
:102920006000b1000898be000a90be000440e100bb
:1029300005c8e10006d0e10007d8e100020031003f
:10294000680040001008e8004f05be004f04be00bc
:1029500000000600889fbe008a9fbe001004780019
:102960009004900020059000b005900004185400d9
:1029700005985c0006185d0007985d0011002000b6
:102980000440e10005c8e10006d0e10007d8e100fd
:10299000010039008000eb00108810004f05be00d8
:1029a0004f04be00000006001200fa00889fbe001f
:1029b0008a9fbe008c9fbe00e0b79f00f1b79f00ca
:1029c00082bf9f0093bf9f000605be000404be00a7
:1029d0000000eb00d0b79f00c0b79f00b0b79f00ca
:1029e000a0b79f0090b79f00000678005fb19700e6
:1029f000cfb09700820141003fb097000200e00095
:102a000004003d00370007007e805700beff07002e
:102a100003003700330007007e805700cdff07001a
:102a2000dfb697000d00e0000c0035006fb2970094
:102a3000ffb297000fbb97009fbb970010002000cc
:102a4000010020006011b800000272008182720053
:102a500002037300838373001b0007000c06e80069
:102a600001042000810f5600e0ff3a000d00e00055
:102a700004003d000802be000a03be007e8057002d
:102a8000a1ff07005fa897000000e00005003a00e2
:102a90001fb29700afb297003fb39700cfb3970034
:102aa000090007006fb09700ffb097000fb99700bb
:102ab0009fb997004f06be004f05be004f04be00f1
:102ac0000080fa0000000600010007000000060078
:102ad000a4b79f00b5b79f00c6b79f00d7b79f00a8
:102ae000000006004f09de0082817100b3b79f002d
:102af0004f01de008180400082807000a1b79f00fe
:102b00008fb097004f09de00000040000200700007
:102b100090b79f007fa897004f01de0081804000a2
:102b20008280700081b79f000d0007004f3ade00e1
:102b30000000400004007000f0af9f000800070094
:102b40000402420085824a0006034b0087834b0043
:102b5000dfff07000802be000a03be0000000600f7
:102b60002fb29700bfb297004fb39700dfb3970023
:102b700000000600881f780018002000881f7800d9
:102b800089ff07008f87e9004f04780000000600e6
:102b9000801feb0084ff07008f87e900000006001c
:102ba000889fbe008a9fbe00e00f5000e08f580053
:102bb000e00f5900e08f59000c003d006044b80060
:102bc0006055b8000000540081805c0002015d0087
:102bd00083815d00180020001500070008003d00fb
:102be000180007000004eb00050037000004eb00ac
:102bf0000f00070002003d0012000700180020002f
:102c0000dcff07000800e000060032006022b80088
:102c10006033b8000000520081805a0002015b005e
:102c200083815b004f05be004f04be00000006001c
:102c3000e00f5200e08f5a00e00f5b00e08f5b0076
:102c4000000006006044b8006055b800040254005b
:102c500085825c0006035d0087835d00000006003e
:102c6000889fbe008a9fbe008c1f7800e00f500036
:102c7000e08f5800e00f5900e08f59000d003d0033
:102c80006044b8006055b8000000540081805c00ca
:102c900002015d0083815d001c0020000820e1002e
:102ca00009a8e1000ab0e1000bb8e1000d003d0009
:102cb000080037000006eb00e00f5200e08f5a00da
:102cc000e00f5b00e08f5b0006003d006044b80051
:102cd0006055b8000402540085825c0006035d0064
:102ce00087835d00aaff07000c00e00006003200a9
:102cf0006022b8006033b8000000520081805a00a2
:102d000002015b0083815b004f0678004f05be0027
:082d10004f04be0000000600a4
:020000040000fa
:102d1800244d000041470000583d00002564000094
:042d28002a0000007d
:020000040000fa
:102d2c000800fa00889fbe00200798003107980021
:102d3c00be009000800c2000808f50009b003c0057
:102d4c0000202a00a1442000008fbe002e0090001d
:102d5c00e10f500023003a001e0078009e00900006
:102d6c00e00f5000e08f580002003d00f00fb00063
:102d7c000180b0004809dd004804de000804710041
:102d8c00c88cde000800be003bf607000004be0045
:102d9c003e009000cf80de0037f6070002002000d6
:102dac00a34724004cf607000001be000800be003b
:102dbc0028f707000ff607000000780010088800bd
:102dcc000421a9000021ef0021088000000320004d
:102ddc0001007000200888000068a90005e1a80027
:102dec00730037002e009000e20f500023003a00d1
:102dfc001e0078009e009000e00f5000e08f5800fd
:102e0c0002003d00f00fb0000180b000480add0068
:102e1c004803de0006037200c88bde000600be000d
:102e2c0015f607000004be003e009000cf80de00c7
:102e3c0011f6070002002000a347240026f6070025
:102e4c000001be000800be0002f70700e9f507000c
:102e5c0000007800600888001021a9000621ef000e
:102e6c0081088000000320000100700080088800a9
:102e7c0000e8a90011e1a8004d0037002e009000d9
:102e8c00e30f500023003a001e0078009e009000d3
:102e9c00e00f5000e08f580002003d00f00fb00032
:102eac000180b0004809dd004802de000402710018
:102ebc00c88ade000400be00eff507000004be0067
:102ecc003e009000cf80de00ebf5070002002000f2
:102edc00a347240000f607000001be000800be0056
:102eec00dcf60700c3f507000000780070088800c6
:102efc001221a9000a21ef00910880000003200094
:102f0c0001007000900888000108a90013e1a800d6
:102f1c00270037002e009000e40f500024003a00e8
:102f2c001e0078009e009000e00f5000e08f5800cb
:102f3c0002003d00f00fb0000180b000480add0037
:102f4c004801de0002017200c889de000200be00ea
:102f5c00c9f507000004be003e009000cf80de00e3
:102f6c00c5f5070002002000a3472400daf507008e
:102f7c000001be000800be00b6f607009df5070074
:102f8c0000007800d00888001e21a9001421ef0051
:102f9c00f10880000003200001007000f008880098
:102fac000368a9001fe1a800010037000000000021
:102fbc004f04be000080fa00000006000200fa0078
:102fcc00000f78001e007800e10f500012003a004c
:102fdc0000408000680060000000e00007003a003c
:102fec000000000000408000680060000000e0006d
:102ffc00fcff32000000eb00500037000040800066
:10300c00680060000000e0004b0032000068a9007e
:10301c0010002000490037001e007800e20f50001d
:10302c0015003a000140800000082000008060007c
:10303c000000e00008003a000000000001408000a1
:10304c0000082000008060000000e000fbff320060
:10305c000000eb0039003700014080000008200020
:10306c00008060000000e0003300320000e8a9009e
:10307c0010002000310037001e007800e30f5000d4
:10308c0015003a0001408000001020000080600014
:10309c000000e00008003a00000000000140800041
:1030ac0000102000008060000000e000fbff3200f8
:1030bc000000eb00210037000140800000102000d0
:1030cc00008060000000e0001b0032000108a90035
:1030dc0010002000190037001e007800e40f50008b
:1030ec0015003a0011408000008020000080600034
:1030fc000000e00008003a000000000011408000d1
:10310c0000802000008060000000e000fbff320027
:10311c000000eb0009003700114080000080200007
:10312c00008060000000e000030032000368a9008a
:10313c001000200001003700000037000080fa006a
:10314c00000006000800fa00889fbe0020079800c7
:10315c003107980000202a00a1442000008fbe00f7
:10316c002e009000e10f500023003a001e00780062
:10317c009e009000e00f5000e08f580002003d00d0
:10318c00f00fb0000180b0004809dd004802de00fd
:10319c0004027100c88ade000400be0036f5070088
:1031ac000004be003e009000cf80de0032f5070028
:1031bc0002002000a347240047f507000001be00d1
:1031cc000800be0023f607000af50700000078008f
:1031dc00100888000421a9000021ef0021088000bc
:1031ec000003200001007000200888000068a9007e
:1031fc0005e1a8002a0037002e009000e20f5000d5
:10320c0027003a00be009000800c2000808f5000f8
:10321c00010034001061a8001e0078009e00900090
:10322c00e00f5000e08f580002003d00f00fb0009e
:10323c000180b000480add004801de000201720086
:10324c00c889de000200be000bf507000004be00ba
:10325c003e009000cf80de0007f507000200200042
:10326c00a34724001cf507000001be000800be00a7
:10327c00f8f50700dff4070000007800600888000c
:10328c001021a9000621ef00810880000003200016
:10329c00010070008008880000e8a90011e1a80076
:1032ac002e009000e10f500007003a0000000000d3
:1032bc0000408000680060000000e000fcff32006d
:1032cc000068a9000a0037002e009000e20f5000a1
:1032dc0007003a00000000000140800000082000b8
:1032ec00008060000000e000fbff320000e8a90055
:1032fc004f04be000080fa00000006000000fa0037
:10330c0041e2a90042a2a8004342a9004302a8003e
:10331c0040c2a90011128000c0ff2f000080600085
:10332c00101288001112800030fe2f000080600007
:10333c004001b30010128800002ea800518ea90085
:10334c0051aea900106ea900108ea90030cea900b4
:10335c004136800000f82f00008060001001b3009f
:10336c0040368800c134800000fc2f0000806000d3
:10337c005000b300c0348800b1348000f00f2c0032
:10338c00808060000060200001007000b034880074
:10339c00146ea800148ea80034cea80041e2a80038
:1033ac000080fa00000006000600fa0020079800d2
:1033bc0034cea90000000000001280006200600002
:1033cc000000e000fcff3a002e0090000070a0000e
:1033dc0040128800000000000012800061006000b4
:1033ec000000e000fcff320041128000010f780069
:1033fc000000000000128000620060000000e0008d
:10340c00fcff3a004822ef00000000000012800090
:10341c00610060000000e000fcff320041128000ff
:10342c001107980034cea80001128000000420007f
:10343c00008060000000e0000100320040c2a900e2
:10344c001e0090000080fa00000006000800fa0040
:10345c0010079800210798003207980034cea90075
:10346c000000000000128000620060000000e0001c
:10347c00fcff3a009e009000000c20000100700040
:10348c004012880000000000001280006100600003
:10349c000000e000fcff320041128000010f7800b8
:1034ac000000000000128000620060000000e000dc
:1034bc00fcff3a004822ef000000000000128000e0
:1034cc00610060000000e000fcff3200411280004f
:1034dc002e0090000108780000000000001280000f
:1034ec00620060000000e000fcff3a004822ef00a0
:1034fc000000000000128000610060000000e0008d
:10350c00fcff3200411280003e0090000108780060
:10351c0034cea8000112800000042000008060005e
:10352c000000e0000100320040c2a9000080fa0057
:10353c00000006000400fa0034cea900b0042000fc
:10354c00000f780000000000001280006200600094
:10355c000000e000fcff3a00f00720001e006000b5
:10356c004012880000000000001280006100600022
:10357c000000e000fcff32004112800011079800af
:10358c000000000000128000620060000000e000fb
:10359c00fcff3a00100020004012880000000000e0
:1035ac0000128000610060000000e000fcff3200af
:1035bc00411280001107980034cea8004100200071
:1035cc0010002000dffe070034cea900c00420004c
:1035dc00000f780000000000001280006200600004
:1035ec000000e000fcff3a00f00720001e00600025
:1035fc004012880000000000001280006100600092
:10360c000000e000fcff320041128000110798001e
:10361c000000000000128000620060000000e0006a
:10362c00fcff3a004822ef0000000000001280006e
:10363c00610060000000e000fcff320041128000dd
:10364c001107980034cea80001128000000420005d
:10365c00008060000000e0000100320040c2a900c0
:10366c000080fa00000006000000fa00316ea8008d
:10367c00300ea9002136800000f82f0080806000f9
:10368c00b004200001007000203688000134800056
:10369c0000fc2f00008060000000a00000348800b7
:1036ac00301d20004011880021e2a8002342a80010
:1036bc002202a8002168a8000080fa000000060081
:1036cc000200fa00004f7800000000001111800089
:1036dc0000202000008060000000e000fbff3a00aa
:1036ec001e00fb00201188000080fa00000006007c
:1036fc000000fa0030118000004078000080fa00d1
:10370c00000006000200fa00f9ff0700004f7800e5
:10371c001e407800eaff07000080fa000000060057
:10372c000200fa00000f78001e0078008000eb0009
:10373c00011098001e0078008000eb00111098001a
:10374c001e0078008000eb00211098000080fa0029
:10375c00000006000400fa00000f780021479800d2
:10376c001e007800001090009e0078000080400041
:10377c00ae409000014878001e00780000109000c8
:10378c008000e800f0012800008060000000e000ec
:10379c0004003d000000e90001fe2f0000807000d5
:1037ac000000e800800078001e00780001109800ee
:1037bc001e007800a010900000022000808f5000a6
:1037cc000f003a001e007800101090008000e800f6
:1037dc00f0012800008060000000e00004003d00c3
:1037ec000000e90001fe2f00008070000000e800de
:1037fc00800078001e00780011109800050037003a
:10380c001e007800201090008000e8001e00780058
:10381c00211098000080fa00000006000400fa0055
:10382c00000f7800110798001e007800101090000f
:10383c009e00780000804000904078001e009000b0
:10384c00014878001e007800101090008000e800fd
:10385c00f0012800008060000000e00004003d0042
:10386c000000e90001fe2f00008070000000e8005d
:10387c00800078001e007800111098001e0078005f
:10388c00201090008000e9001e00780021109800a4
:10389c000080fa00000006000200fa00000f780019
:1038ac001e0078002010900000f0a7000000ea0035
:1038bc000000e9004f00de000080fa000000060066
:1038cc005400fa006e2eef00707380007072880046
:1038dc0070728000f0718800f07180007071880047
:1038ec0070718000f0708800f0708000707088003b
:1038fc0082fe07000fff07006a00470088ff0700e1
:10390c00200420001007980057ff070041062000f4
:10391c002000200002fd0700210320008e804000c3
:10392c00000320000e0040000101780080007800a8
:10393c001e009000c5fe07008e189000800f20001e
:10394c0000806000001f98001e1890004800dd00e9
:10395c00101f98009e1890000e1890000100700027
:10396c00200798002e0090000000e00001003d00b0
:10397c00670040004380de003007980040032000c1
:10398c000e004000be009000811f7800c168290025
:10399c00811f78001cf60700e487570040032000c5
:1039ac000e00400025f60700400798000000eb00d1
:1039bc00000f780005003700410320001e804000f6
:1039cc006e4078003eff07001e0fe8004e0090008e
:1039dc009e007800808f5000f7ff350020002000fb
:0839ec0076fd0700ccff370057
:020000040000fa
:1039f400001000000200000080000000021000001f
:103a04001e00000082000000286e69006c2900007e
:103a140025006800076c09004c836a009074a000bc
:103a24007ac000008068880000846c0082008100f5
:103a340020100000020000008000000000000000d0
:00000001FF
